{
  "transactions": [
    {
      "hash": "0x344321aa60f3d15f8187ec0dc9259046a0c355e6d2e73b62b36fa891af60a9c5",
      "transactionType": "CALL",
      "contractName": null,
      "contractAddress": "0xd41a5a014bf700efbb14e910fc804e5e5c0bb56e",
      "function": "mintNft(string)",
      "arguments": [
        "ipfs://QmXnnyufdzAWLZyZ2Y5v3v3v3v3v3v3v3v3v3v3v3v3"
      ],
      "transaction": {
        "from": "0x9cdc049eeb985521d4993bc5ea85cfa91bd5c248",
        "to": "0xd41a5a014bf700efbb14e910fc804e5e5c0bb56e",
        "gas": "0x39237",
        "value": "0x0",
        "input": "0xda86f4a900000000000000000000000000000000000000000000000000000000000000200000000000000000000000000000000000000000000000000000000000000032697066733a2f2f516d586e6e797566647a41574c5a795a3259357633763376337633763376337633763376337633763376330000000000000000000000000000",
        "nonce": "0x37",
        "chainId": "0xaa36a7"
      },
      "additionalContracts": [],
      "isFixedGasLimit": false
    }
  ],
  "receipts": [
    {
      "status": "0x1",
      "cumulativeGasUsed": "0x10b521d",
      "logs": [
        {
          "address": "0xd41a5a014bf700efbb14e910fc804e5e5c0bb56e",
          "topics": [
            "0xddf252ad1be2c89b69c2b068fc378daa952ba7f163c4a11628f55a4df523b3ef",
            "0x0000000000000000000000000000000000000000000000000000000000000000",
            "0x0000000000000000000000009cdc049eeb985521d4993bc5ea85cfa91bd5c248",
            "0x0000000000000000000000000000000000000000000000000000000000000000"
          ],
          "data": "0x",
          "blockHash": "0xd5be05b22943fa6ccd0c6d84a98244b1ca6cf1882717d2054b98216301b0a68e",
          "blockNumber": "0x7edc04",
          "blockTimestamp": "0x68227038",
          "transactionHash": "0x344321aa60f3d15f8187ec0dc9259046a0c355e6d2e73b62b36fa891af60a9c5",
          "transactionIndex": "0xa2",
          "logIndex": "0x144",
          "removed": false
        }
      ],
      "logsBloom": "0x00000000000000000000000000000000000000000000000040000000000000000000000000000000000000000000000000000000000000000000000000000000000000000000000800000008000000000000000000000000000000000000000000000000020000000000000000000800000000000000000000000090000000000000000000000000000000000000000000000000000000000000000000000000000000000000000000000000000000000000000000000000000000000000000000000002000000000000000000000000000000000000000000000000200020000000000000000000000000000000000000000000000000100000000000000008",
      "type": "0x2",
      "transactionHash": "0x344321aa60f3d15f8187ec0dc9259046a0c355e6d2e73b62b36fa891af60a9c5",
      "transactionIndex": "0xa2",
      "blockHash": "0xd5be05b22943fa6ccd0c6d84a98244b1ca6cf1882717d2054b98216301b0a68e",
      "blockNumber": "0x7edc04",
      "gasUsed": "0x2711b",
      "effectiveGasPrice": "0xf4250",
      "from": "0x9cdc049eeb985521d4993bc5ea85cfa91bd5c248",
      "to": "0xd41a5a014bf700efbb14e910fc804e5e5c0bb56e",
      "contractAddress": null
    }
  ],
  "libraries": [],
  "pending": [],
  "returns": {},
  "timestamp": 1747087418,
  "chain": 11155111,
  "commit": "c7dfb16"
}